:100000000C945E000C9486000C9486000C94860080
:100010000C9486000C9486000C9486000C94860048
:100020000C9486000C9486000C9486000C94EE05CB
:100030000C9486000C9486000C9486000C94860028
:100040000C94A4050C9486000C9472050C944C0539
:100050000C9486000C9486000C9486000C94860008
:100060000C9486000C948600000000080002010039
:100070000003040700000000000000000000000072
:10008000250028002B0000000000240027002A0083
:10009000040404040404040402020202020203032E
:1000A0000303030301020408102040800102040836
:1000B0001020010204081020AA06E50911241FBE21
:1000C000CFEFD8E0DEBFCDBF11E0A0E0B1E0EEE8B9
:1000D000F9E102C005900D92AE3BB107D9F722E0DD
:1000E000AEEBB1E001C01D92AF3AB207E1F710E00C
:1000F000CDE5D0E004C02197FE010E94B10ACC35C5
:10010000D107C9F70E9439070C94BA0C0C9400006F
:1001100090E0FC01EC55FF4F249180579F4FFC016C
:100120008491882399F090E0880F991FFC01EA5789
:10013000FF4FA591B491FC01E458FF4F8591949134
:100140008FB7F894EC91E22BEC938FBF0895CF9288
:10015000DF92EF92FF92DC01A03282E0B807D4F583
:10016000A53BB10514F0A4EBB0E04091910228E862
:1001700030E0241B310947FD3395220F331F220F36
:10018000331F6901330FEE08FF084091920228E502
:1001900032E0241B310947FD3395220F331F220F14
:1001A000331F032E000C440B550B2C193D094E092F
:1001B0005F09B7FF02C0B0E0A0E00E94350A24EB5F
:1001C00030E040E050E00E940B0AC20ED31EE41E55
:1001D000F51ED601E0919002EC3080F5209191025D
:1001E00088E890E0821B910927FD9395880F991F5D
:1001F000880F991FA817B90784F02091920288E50B
:1002000092E0821B910927FD9395880F991F880F13
:10021000991FA817B9070CF4CD010297880F991FF1
:100220004FB7F8942E2F30E0F901EE0FFF1FE20FC9
:10023000F31FEB59FD4F928381834FBFFF90EF90E7
:10024000DF90CF9008950895AF92BF92CF92DF9242
:10025000EF92FF920F931F93CF93DF936C017B017B
:100260008B01040F151FEB015E01AE18BF08C0170C
:10027000D10759F06991D601ED91FC910190F0817F
:10028000E02DC6010995892B79F7C501DF91CF9142
:100290001F910F91FF90EF90DF90CF90BF90AF90A4
:1002A0000895FC01538D448D252F30E0842F90E07C
:1002B000821B930B541710F0CF9608950197089561
:1002C000FC01918D828D981761F0A28DAE0FBF2F2A
:1002D000B11D5D968C91928D9F5F9F73928F90E080
:1002E00008958FEF9FEF08952FB7F8948091C40180
:1002F0009091C501A091C601B091C7012FBF809315
:10030000D0019093D101A093D201B093D30188EC96
:1003100091E00E94600197FF26C02FB7F89480916A
:10032000C4019091C501A091C601B091C7012FBF32
:100330004091D0015091D1016091D2017091D301CF
:10034000841B950BA60BB70B4091CC015091CD01AE
:100350006091CE017091CF0184179507A607B7076A
:10036000B0F28FEF9FEF0895FC01918D828D981769
:1003700031F0828DE80FF11D858D90E008958FEFAB
:100380009FEF0895FC01918D228D892F90E0805C74
:100390009F4F821B91098F739927089588EC91E0F4
:1003A0000E94C20121E0892B09F420E0822F0895E8
:1003B00080E090E0892B29F00E94CE0181110C94FD
:1003C00000000895FC01A48DA80FB92FB11DA35AF8
:1003D000BF4F2C91848D90E001968F739927848F65
:1003E000A689B7892C93A089B1898C918370806488
:1003F0008C93938D848D981306C00288F389E02D29
:1004000080818F7D80830895EF92FF920F931F93D9
:10041000CF93DF93EC0181E0888F9B8D8C8D9813B7
:100420001AC0E889F989808185FF15C09FB7F894C3
:10043000EE89FF896083E889F9898081837080640F
:1004400080839FBF81E090E0DF91CF911F910F915A
:10045000FF90EF900895F62E0B8D10E00F5F1F4F69
:100460000F731127E02E8C8D8E110CC00FB607FC78
:10047000FACFE889F989808185FFF5CFCE010E9406
:10048000E201F1CFEB8DEC0FFD2FF11DE35AFF4F91
:10049000F0829FB7F8940B8FEA89FB898081806294
:1004A000CFCFCF93DF93EC01888D8823B9F0AA8951
:1004B000BB89E889F9898C9185FD03C0808186FD1F
:1004C0000DC00FB607FCF7CF8C9185FFF2CF80816E
:1004D00085FFEDCFCE010E94E201E9CFDF91CF9100
:1004E000089590E0FC01E859FF4F2491FC01EC5580
:1004F000FF4F3491FC01E057FF4FE491EE23C9F028
:10050000222339F0233001F1A8F4213019F12230EF
:1005100029F1F0E0EE0FFF1FE458FF4FA591B491D1
:100520008FB7F894EC91611126C030953E233C932F
:100530008FBF08952730A9F02830C9F0243049F73B
:10054000809180008F7D03C0809180008F778093A1
:100550008000DFCF84B58F7784BDDBCF84B58F7DFE
:10056000FBCF8091B0008F778093B000D2CF809185
:10057000B0008F7DF9CF3E2BDACFCF93C62F682FF7
:1005800089E00E9471026C2F8AE00E94710260E093
:100590008BE0CF910C9471023FB7F8948091C00129
:1005A0009091C101A091C201B091C30126B5A89B51
:1005B00005C02F3F19F00196A11DB11D3FBFBA2FF5
:1005C000A92F982F8827BC01CD01620F711D811DB5
:1005D000911D42E0660F771F881F991F4A95D1F73A
:1005E00008958F929F92AF92BF92CF92DF92EF9237
:1005F000FF924B015C010E94CC026B017C010E94C6
:10060000CC026C197D098E099F09683E73408105F3
:100610009105A8F321E0821A9108A108B10888EE9B
:10062000C80E83E0D81EE11CF11C81149104A104C2
:10063000B10429F7FF90EF90DF90CF90BF90AF907B
:100640009F908F90089590E080E00895CF93DF937E
:10065000EC0160E08E810E94710261E08E810E9457
:10066000710260E08E810E9471028BE891E0019737
:10067000F1F7DF91CF910895CF92DF92EF92FF9241
:100680000F931F93CF93DF936C017C0187E0E80EFB
:10069000F11CD0E0C0E0062F10E0B8010C2E02C023
:1006A000759567950A94E2F76170F70181917F0172
:1006B0000E9471022196C430D10579F7C601DF91FD
:1006C000CF911F910F91FF90EF90DF90CF900C94FE
:1006D0002603CF92DF92EF92FF920F931F93CF9357
:1006E000DF93EC01F62E642F8C810E9471028D81C4
:1006F0008F3F19F060E00E9471020F2D10E08F858E
:1007000084FF25C06E0187E0C80ED11CF12CE12CBE
:10071000B8010E2C02C0759567950A94E2F76170D6
:10072000F60181916F010E947102FFEFEF1AFF0A3B
:1007300088E0E816F10461F7CE01DF91CF911F91B7
:100740000F91FF90EF90DF90CF900C942603B801AB
:1007500084E0759567958A95E1F7CE010E943C0388
:100760006F2DCE01DF91CF911F910F91FF90EF90F0
:10077000DF90CF900C943C0340E0682F83E992E037
:100780000C94690381E00E94BC038BE39FE1019715
:10079000F1F70895CF93DF93823029F49091A2026C
:1007A00098609093A2028093A6021092A70280E420
:1007B0008093A80280E18093A90280E58093AA0239
:1007C000809197020E948800809198028F3F11F0DB
:1007D0000E948800809199020E948800C3E9D2E0BB
:1007E0009E01235932408091A20284FD0AC084E018
:1007F00090E02196281739073CF48E810E948800EA
:10080000EFCF88E090E0F5CF8BE39DE00197F1F723
:1008100060E0809197020E94710260E080919902ED
:100820000E947102809198028F3F19F060E00E944F
:1008300071028091A20284FD34C063E083E992E0FA
:100840000E943C03CBE4D6E4CE010197F1F763E0CC
:1008500083E992E00E943C032197F1F763E083E98A
:1008600092E00E943C0383E592E00197F1F762E099
:1008700083E992E00E943C038091A20280620E9480
:10088000BC0384E08093A3028CE00E94BC030E941E
:10089000C20382E08093A40286E0DF91CF910C94A2
:1008A000BC0380620E94BC038BE496E40197F1F7DD
:1008B0008091A20280620E94BC0383E592E00197CE
:1008C000F1F78091A20280620E94BC03D5CFE09133
:1008D000A602E23040F4E150F0E0ED56FD4F84898D
:1008E00080680C94BC03E1E0F7CF41E00E9469030B
:1008F00081E090E00895FC0101900020E9F7319734
:10090000AF01481B590BBC0183E992E00C94240110
:1009100020918E0230918F02232B39F421E0FC01CB
:100920008081882361F020E00AC0BC0180918A02A6
:1009300090918B020E94AA0C21E0892BA1F7822FB3
:100940000895CF93DF93EC01CB0161E00E94FD0994
:100950000E94C2034C815D816881798183E992E0C4
:100960000E9424010E94670484E291E00E947B04BB
:1009700061E070E090E080E00E94BD0260E088E00D
:100980000E9471028AE590E00E94A7006CED75E07C
:1009900080E090E00E94F10290E080E00E94A700D9
:1009A00060ED77E080E090E00E94F10270E060E0AE
:1009B00090E080E00E94BD02DF91CF910C94C203D1
:1009C000FC0180819181009711F00C94530B0895E4
:1009D0000F931F93CF93DF93EC0188819981009748
:1009E00059F02A813B812617370730F081E0DF91EB
:1009F000CF911F910F9108958B016F5F7F4F0E94E0
:100A0000DC0B009759F0998388831B830A832C8120
:100A10003D81232B59F7FC011082E8CF80E0E7CF1E
:100A2000EF92FF920F931F93CF93DF93EC017B0123
:100A3000198218821B821A821D821C82FB0101907E
:100A40000020E9F731978F01061B170BB8010E94B0
:100A5000E80428813981811113C02115310519F06D
:100A6000C9010E94530B198218821D821C821B82AD
:100A70001A82DF91CF911F910F91FF90EF9008950F
:100A80001D830C83B701C901DF91CF911F910F9195
:100A9000FF90EF900C94B30C1F920F920FB60F9231
:100AA00011242F933F934F935F936F937F938F9373
:100AB0009F93AF93BF93EF93FF9388EC91E00E94D5
:100AC000E201FF91EF91BF91AF919F918F917F9143
:100AD0006F915F914F913F912F910F900FBE0F90AB
:100AE0001F9018951F920F920FB60F9211242F93FB
:100AF0008F939F93EF93FF93E091D801F091D901E9
:100B00008081E091DE01F091DF0182FD1BC09081C8
:100B10008091E1018F5F8F732091E201821741F094
:100B2000E091E101F0E0E853FE4F958F8093E10101
:100B3000FF91EF919F918F912F910F900FBE0F908A
:100B40001F9018958081F4CF1F920F920FB60F92CD
:100B500011242F933F938F939F93AF93BF938091D3
:100B6000C4019091C501A091C601B091C701309117
:100B7000BF0123E0230F2D3758F50196A11DB11DAC
:100B80002093BF018093C4019093C501A093C60137
:100B9000B093C7018091C0019091C101A091C201A1
:100BA000B091C3010196A11DB11D8093C001909326
:100BB000C101A093C201B093C301BF91AF919F91B6
:100BC0008F913F912F910F900FBE0F901F9018950E
:100BD00026E8230F0296A11DB11DD2CF1F920F92BE
:100BE0000FB60F9211242F933F934F935F936F9300
:100BF0007F938F939F93AF93BF93CF93DF93EF93A5
:100C0000FF938091BE01C0918902D0E087FF24C08C
:100C100010928500109284008091BE018F5F8093B6
:100C2000BE018091BE01082E000C990B8C179D0708
:100C300024F48091BE018C30C4F1809184009091A5
:100C40008500049680349C4908F47AC08091840021
:100C500090918500049676C08091BE01082E000C0C
:100C6000990B8C179D07C4F6E091BE018E2FEE0FF5
:100C7000990BFC01EE0FFF1FE80FF91FEB59FD4F19
:100C8000808186FFC9CFE091BE018E2FEE0F990BB8
:100C9000FC01EE0FFF1FE80FF91FEB59FD4F80819C
:100CA00060E08F730E947102B7CF20918400309171
:100CB0008500E091BE018E2FEE0F990BFC01EE0F27
:100CC000FF1FE80FF91FEB59FD4F81819281820FC1
:100CD000931F9093890080938800E091BE018E2F2E
:100CE000EE0F990BFC01EE0FFF1FE80FF91FEB59F8
:100CF000FD4F808186FF11C0E091BE018E2FEE0F67
:100D0000990BFC01EE0FFF1FE80FF91FEB59FD4F88
:100D1000808161E08F730E947102FF91EF91DF91FA
:100D2000CF91BF91AF919F918F917F916F915F9183
:100D30004F913F912F910F900FBE0F901F901895DC
:100D400080E49CE990938900809388008FEF8093E2
:100D5000BE01E3CFCF931092CB011092CA0188EE6F
:100D600093E0A0E0B0E08093CC019093CD01A093FC
:100D7000CE01B093CF018AE091E09093C9018093B6
:100D8000C80185EC90E09093D5018093D40184EC68
:100D900090E09093D7018093D60180EC90E09093FF
:100DA000D9018093D80181EC90E09093DB0180938E
:100DB000DA0182EC90E09093DD018093DC0186EC17
:100DC00090E09093DF018093DE011092E101109298
:100DD000E2011092E3011092E40110929602109247
:100DE00095028CE191E0909394028093930282E0CB
:100DF00080939702CFEFC093980283E0809399028B
:100E000084E080939A0285E080939B0286E0809341
:100E10009C0287E080939D0210929E0210929F0296
:100E20001092A0021092A1021092A20281E00E94F0
:100E3000CA03809189028C30C8F491E0980F909396
:100E400089028093900290E0FC01EE0FFF1FE80FF3
:100E5000F91FEB59FD4F88EB9BE09283818365EA94
:100E600071E08AE892E0CF910C941005C093900253
:100E7000F6CFCF93DF93CDB7DEB728970FB6F894B0
:100E8000DEBF0FBECDBF789484B5826084BD84B5CB
:100E9000816084BD85B5826085BD85B5816085BD75
:100EA00080916E00816080936E001092810080912D
:100EB00081008260809381008091810081608093B5
:100EC0008100809180008160809380008091B100DA
:100ED00084608093B1008091B00081608093B00005
:100EE00080917A00846080937A0080917A00826099
:100EF00080937A0080917A00816080937A0080915B
:100F00007A00806880937A001092C100E091D80145
:100F1000F091D90182E08083E091D401F091D50174
:100F20001082E091D601F091D7018FEC808310926E
:100F3000E001E091DC01F091DD0186E08083E09149
:100F4000DA01F091DB01808180618083E091DA0138
:100F5000F091DB01808188608083E091DA01F0917B
:100F6000DB01808180688083E091DA01F091DB0110
:100F700080818F7D808388E00E94880089E00E94C4
:100F800088008AE00E9488008BE00E94880080919F
:100F900090028C3008F050C08CE00E948800809154
:100FA0009002282F30E0F901EE0FFF1FE20FF31F30
:100FB000EB59FD4F9081907C9C6090831092910240
:100FC000109292022CE0622F0E94A50A829FB0012B
:100FD000112430E020E0AB01420F531FFA01EE0F65
:100FE000FF1FE40FF51FEB59FD4F908196FD16C0D2
:100FF0002F5F3F4F2C30310571F781110FC01092D8
:10100000800082E08093810010928500109284001D
:10101000B19A80916F00826080936F00E09190029E
:101020008E2F90E0FC01EE0FFF1FE80FF91FEB5928
:10103000FD4F80818064808390E080E00E94A70063
:1010400082E00E94CA0385E391E00E947B040E9433
:10105000670482E491E00E947B0460ED77E080E029
:1010600090E00E94F1020E94C20381E591E00E949B
:101070007B0468EE73E080E090E00E94F1020E9441
:10108000C20380E0A82E80E0B82E88EC91E00E9498
:10109000C201181619060CF011C11A8219821C829D
:1010A0001B821E821D8270E060E0CE0101960E94CC
:1010B000E80429813A8181112EC02115310519F0EA
:1010C000C9010E94530B1A8219821E821D821C8242
:1010D0001B820E94740197FD26C08A30910519F188
:1010E0008F8318860D811E810F5F1F4FB801CE01BF
:1010F00001960E94E804882361F329813A818D8159
:101100009E81BE01695F7F4F820F931F0E94B30CC7
:101110001E830D83DECF1E821D8265EA71E0C90148
:101120000E94B30CD6CF80918A0290918B020097D7
:1011300009F444C069817A8161157105E9F1409132
:101140008C0250918D022D813E8142175307A0F1F0
:101150000E94B30C8D819E8190938F0280938E02AA
:101160001E821D82CE0101960E94E004C0908A0278
:10117000D0908B02C114D10441F000918E021091E5
:101180008F0276010115110589F500918A021091EF
:101190008B020115110509F465C0F80181918F01D9
:1011A000882309F45FC0082E000C990B0E94990C4B
:1011B000F80131978083F1CF0E94530B89819A8186
:1011C00090938B0280938A028B819C8190938D02F5
:1011D00080938C028D819E8190938F0280938E02EA
:1011E0001A8219821C821B82BBCF740147018FEFC8
:1011F000881A980AF7018081082E000C990B0E942A
:10120000E909892B91F7015011090C0D1D1DF801F9
:101210008081082E000C990B0E94E909892B31F07E
:101220000E151F0518F001501109F1CFA8014F5FED
:101230005F4F4E195F0950938F0240938E02CE1478
:10124000DF0420F4B701C6010E94A10CE0918A02DC
:10125000F0918B0280918E0290918F02E80FF91F1E
:10126000108293CF88E591E00E9488048823E1F101
:101270001A8219821C821B821E821D8265E070E028
:10128000CE0101960E94E80429813A81811122C091
:101290002115310519F0C9010E94530B1A821982D8
:1012A0001E821D821C821B8270E060E0CE010196CE
:1012B0000E94A104CE0101960E94E004A114B10491
:1012C00009F4E3CE0E94CE01882309F4DECE0E9409
:1012D0000000DBCE85E090E09E838D836EE571E0BB
:1012E000C9010E94B30CE0CF84E691E00E9488041B
:1012F000882349F06BE671E0CE0101960E9410054B
:1013000061E070E0D3CF82E791E00E9488048823F7
:1013100049F069E771E0CE0101960E94100562E094
:1013200070E0C4CF80E891E00E948804882399F19E
:1013300083E090E00E94F50961E0680F83E090E0AF
:101340000E94FD090E94C20388E891E00E947B048C
:101350000E94670487E991E00E947B0470E060E0EE
:1013600081E090E00E94BD0261E088E00E9471028D
:1013700060ED77E080E090E00E94F10260E088E0BC
:101380000E94710270E060E090E080E00E94BD0287
:101390000E94C20393CF86EA91E00E9488048823CA
:1013A00009F48CCF0E94C2038DEA91E00E947B0475
:1013B00061E070E081E090E00E94BD0260ED77E0C6
:1013C00080E090E00E94F102DDCF8AE892E00C9488
:1013D000E00491110C94F209803219F08950855083
:1013E000C8F70895992788270895F999FECF92BDE7
:1013F00081BDF89A992780B50895262FF999FECFD7
:101400001FBA92BD81BD20BD0FB6F894FA9AF99A21
:101410000FBE01960895052E97FB1EF400940E94BE
:10142000220A57FD07D00E94740A07FC03D04EF42D
:101430000C94220A50954095309521953F4F4F4F7F
:101440005F4F089590958095709561957F4F8F4F70
:101450009F4F08950E94960AA59F900DB49F900DEE
:10146000A49F800D911D11240895B7FF0C942A0AA2
:101470000E942A0A821B930B08952F923F924F924B
:101480005F926F927F928F929F92AF92BF92CF9214
:10149000DF92EF92FF920F931F93CF93DF93CDB71D
:1014A000DEB7CA1BDB0B0FB6F894DEBF0FBECDBF95
:1014B00009942A88398848885F846E847D848C8466
:1014C0009B84AA84B984C884DF80EE80FD800C816F
:1014D0001B81AA81B981CE0FD11D0FB6F894DEBF52
:1014E0000FBECDBFED010895A1E21A2EAA1BBB1BB2
:1014F000FD010DC0AA1FBB1FEE1FFF1FA217B307E0
:10150000E407F50720F0A21BB30BE40BF50B661FF5
:10151000771F881F991F1A9469F7609570958095B9
:1015200090959B01AC01BD01CF010895A29FB00130
:10153000B39FC001A39F700D811D1124911DB29F07
:10154000700D811D1124911D0895991B79E004C02F
:10155000991F961708F0961B881F7A95C9F78095F2
:101560000895EE0FFF1F0590F491E02D09940F935D
:101570001F93CF93DF938230910510F482E090E0C7
:10158000E091AD02F091AE0230E020E0B0E0A0E0EA
:10159000309799F42115310509F44AC0281B390BFD
:1015A00024303105D8F58A819B816115710589F157
:1015B000FB0193838283FE0111C04081518102812E
:1015C000138148175907E0F04817590799F4109705
:1015D00061F012960C93129713961C933296CF01DA
:1015E000DF91CF911F910F9108950093AD02109359
:1015F000AE02F4CF2115310551F04217530738F0F0
:10160000A901DB019A01BD01DF01F801C1CFEF01A2
:10161000F9CF9093AE028093AD02CDCFFE01E20FE1
:10162000F31F819391932250310939832883D7CFB7
:101630002091AB023091AC02232B41F420910201A6
:10164000309103013093AC022093AB022091000152
:10165000309101012115310541F42DB73EB740917C
:10166000040150910501241B350BE091AB02F09170
:10167000AC02E217F307A0F42E1B3F0B2817390723
:1016800078F0AC014E5F5F4F2417350748F04E0FDE
:101690005F1F5093AC024093AB02819391939FCF15
:1016A000F0E0E0E09CCFCF93DF930097E9F0FC01FE
:1016B000329713821282A091AD02B091AE02ED0179
:1016C00030E020E01097A1F420813181820F931F38
:1016D0002091AB023091AC022817390709F061C0A4
:1016E000F093AC02E093AB02DF91CF910895EA0151
:1016F000CE17DF07E8F54A815B819E014115510550
:10170000B1F7E901FB83EA8349915991C40FD51FD1
:10171000EC17FD0761F4808191810296840F951F7B
:10172000E90199838883828193819B838A83F0E096
:10173000E0E012968D919C9113970097B9F52D9149
:101740003C911197CD010296820F931F2091AB021D
:101750003091AC022817390739F6309751F51092BD
:10176000AE021092AD02B093AC02A093AB02BCCF1C
:10177000D383C28340815181840F951FC817D90735
:1017800061F44E5F5F4F88819981480F591F5183E3
:1017900040838A819B81938382832115310509F0DF
:1017A000B0CFF093AE02E093AD029ECFFD01DC011D
:1017B000C0CF13821282D7CFB0E0A0E0E2EEFBE010
:1017C0000C943F0A8C01009751F4CB010E94B70A98
:1017D0008C01C801CDB7DEB7E0E10C945B0AFC01D7
:1017E000E60FF71F9C0122503109E217F30708F4B6
:1017F0009DC0D901CD91DC911197C617D70798F0FC
:10180000C530D10530F3CE0104978617970708F34A
:10181000C61BD70B2297C193D1936D937C93CF01B5
:101820000E94530BD6CF5B01AC1ABD0A4C018C0E43
:101830009D1EA091AD02B091AE02512C412CF12C15
:10184000E12C109731F58091AB029091AC02881594
:10185000990509F05CC04616570608F058C08091FB
:10186000000190910101009741F48DB79EB740911E
:10187000040150910501841B950BE817F90708F046
:1018800055C0F093AC02E093AB02F9017183608321
:10189000A0CF8D919C91119712966C9012971396F0
:1018A0007C901397A815B90559F56C0142E0C40E58
:1018B000D11CCA14DB0420F1AC014A195B09DA011E
:1018C0001296159780F06282738251834083D9010A
:1018D0006D937C93E114F10471F0D7011396FC939E
:1018E000EE93129776CF22968C0F9D1FF90191836C
:1018F0008083F301EFCFF093AE02E093AD0269CFA6
:101900004816590608F42C017D01D3019ACFCB016A
:101910000E94B70A7C01009749F0AE01B8010E940D
:10192000A10CC8010E94530B870153CF10E000E0C7
:1019300050CF9111089581548A5108F4805E855AE0
:101940000895FB01DC0102C001900D92415050400E
:10195000D8F70895FB01DC018D91019080190110E9
:10196000D9F3990B0895FB01DC0101900D92002041
:10197000E1F7089510E0CDE5D0E004C0FE010E943B
:0E198000B10A2196CE35D107C9F7F894FFCFF2
:10198E000000AF028000000000000402240151019B
:10199E005102C2016001B40100000000750424016F
:1019AE0023032301417474656E64616E6365205375
:1019BE00617665640053747564656E742046616368
:1019CE0065005265636F676E6974696F6E2E2E2E99
:1019DE0000526561647921007A61686972005A610A
:1019EE00686972006D656872616E004D656872613E
:1019FE006E00796F7573616600596F75736166005D
:101A0E00756E6B6E6F776E00556E6B6E6F776E20A8
:101A1E00506572736F6E0041636365737320446526
:101A2E006E69656421006E6F666163650041646A6C
:0E1A3E0075737420596F7572204661636500E0
:00000001FF
